:100000000C94470F0C946F0F0C946F0F0C946F0FA0
:100010000C946F0F0C946F0F0C946F0F0C946F0F68
:100020000C946F0F0C946F0F0C946F0F0C946F0F58
:100030000C946F0F0C946F0F0C946F0F0C946F0F48
:100040000C945B130C946F0F0C946F0F0C946F0F48
:100050000C946F0F0C946F0F0C946F0F0C946F0F28
:100060000C946F0F0C946F0F08000000BE9224498F
:10007000123EABAAAA2ABECDCCCC4C3E00000080DA
:10008000BEABAAAAAA3E00000000BF000000803F4D
:100090000000000000084178D3BB4387D1133D190D
:1000A0000E3CC3BD4282AD2B3E68EC8276BED98F3A
:1000B000E1A93E4C80EFFFBE01C4FF7F3F0000007E
:1000C0000000FFE0FFD1AFFF32FFD0FFFEFFE0FFF7
:1000D000D1AEFFD0FFFEFFE0FFD11002FFFEFFD048
:1000E000FFE0FFC1FFD1AED580A83FD300408D1403
:1000F0002002A1C8DA1281CFD9F1DB402EA4A6AF2D
:10010000FFD0FFFE00000000240027002A000000AE
:1001100000002300260029000000001F000000004E
:1001200000000000000000000003FFC0000000000D
:1001300000000000000000007FC7F0000000000089
:100140000000000000000FF007FC000000000000AD
:100150000000000003FE0007FF8000000000000018
:100160000000007FC00007FFE0000000000000006A
:100170000000F8000007FFF8000000000000000089
:1001800000C0000007FFFE000000000000000000AB
:10019000C0000007FFFE000000000000000000C0DB
:1001A000000007FFFE100000000000000003C00078
:1001B0000007FFFE180000000000000003C0000060
:1001C00007FFFE180000000000000003C000000749
:1001D000FFFE180000000000000003C0000007FF41
:1001E000FE180000000000000003C0000007FFFE32
:1001F000180000000000000003C0000007FFFE1808
:100200000000000000000003C0000007FFFE18000F
:1002100000000000000003C0000007FFFE180000FF
:10022000000000000003C0000007FFFE18000000EF
:100230000000000003C0000007FFFE1800000000DF
:1002400000000003C0000007FFFE180000000000CF
:10025000000003C0000007FFFE18000000000000BF
:100260000003C0000007FFFE19FC01FC301CFF0763
:10027000F3C0000007FFFE1BDE07DF1819FF0F3B6E
:10028000C0000007FFFE1A070E039C30031C0FC0BE
:10029000000007FFFE1C038C018C70031807C000D0
:1002A0000007FFFE1C019C00C660033803C000006D
:1002B00007FFFE1C019800C7C0033003C000000701
:1002C000FFFE18019800C3C0033003C0000007FF01
:1002D000FE18019800C1807F3003C0000007FFFEB8
:1002E00018019800C3C07F3003C0000007FFFE1C48
:1002F000019800C6E0033003C0000007FFFE1C01A8
:100300009C01CE60033807C0000007FFFE1C038C71
:10031000018C30031807C0000007FFFE1A070E0308
:100320009838031C0FC0000007FFFE1BFE07FF38B4
:1003300019FF0FFBC0000007FFFE19FC01FC700C49
:10034000FF07F3C0000007FFFE10000000000000E0
:100350000000C0000007FFFE0000000000000000D9
:1003600000C0000007FFFE000000000000000000C9
:10037000F0000007FFF80000000000000000007F10
:10038000C00007FFE000000000000000000003FEC6
:100390000007FF80000000000000000000000FF0D8
:1003A00007FC0000000000000000000000007F8744
:1003B000F000000000000000000000000003FFC08B
:1003C000000000000000000000000000001F00000E
:1003D00000000000000000000001060C00FE070104
:1003E00035026B20FFFE0AFE08FE0C006022176734
:1003F00080808080800080173363A0A0A0025666B2
:1004000050F85050F8500159692070A8A07028A8E1
:100410007020025767C8C81020409898025767405C
:10042000A0A040A8906827136380808011396920BC
:100430004040808080404020113969804040202029
:100440002040408002576720A8702070A8200355E4
:10045000652020F820200133636060C0055161F8F9
:10046000122262C0C002576708101020404080125C
:1004700047676090909090906012376740C040400E
:100480004040E0025767708808102040F802576724
:10049000F808103008887002576710305090F81034
:1004A00010025767F880F0080888700257673040DC
:1004B00080F0888870025767F8081010202020020A
:1004C0005767708888708888700257677088887846
:1004D000081060122565C0C000C0C00136666060AB
:1004E000006060C01335652040804020045363F8ED
:1004F00000F81335658040204080025767708810EF
:10050000202000200257677088B8A8B88070025772
:1005100067708888F8888888025767F0484870486C
:1005200048F002576770888080808870025767F0B3
:100530004848484848F0025767F88080F08080F8C3
:10054000025767F88080F08080800257677088804B
:1005500080988870025767888888F888888812375A
:1005600067E04040404040E00257673810101010EC
:1005700090600257678890A0C0A09088025767805B
:100580008080808080F802576788D8A8888888880B
:100590000257678888C8A898888802576770888833
:1005A00088888870025767F08888F08080800257BA
:1005B0006770888888A89068025767F08888F0A0DC
:1005C000908802576770888070088870025767F8B3
:1005D00020202020202002576788888888888870FB
:1005E0000257678888888850502002576788888813
:1005F00088A8A850025767888850205088880257DA
:100600006788885020202020025767F80810204073
:1006100080F8113969E080808080808080E0025716
:100620006780404020101008113969E02020202008
:10063000202020E0075363205088005161F81733D1
:10064000638040200255657008788878025767807B
:1006500080F0888888F0025565708880887002571D
:1006600067080878888888780255657088F08070F7
:10067000025767304840E040404000576770888824
:10068000887808700257678080F0888888881237D9
:10069000674000C0404040E0104969100030101031
:1006A0001010906002576780808890E09088123721
:1006B00067C04040404040E0025565D0A8A8A8A8C7
:1006C000025565B0C888888802556570888888702A
:1006D000005767F0888888F080800057677888889E
:1006E00088780808025565B0C88080800255657812
:1006F000807008F00257672020F82020201802554B
:1007000065888888986802556588888850200255D1
:10071000658888A8A85002556588502050880057E1
:100720006788888850204080025565F8102040F87E
:1007300011396920404040804040402021196980A3
:100740008080808080808080113969804040402096
:100750004040408004536348A890FFFFFFFFFFFF25
:10076000FFFFFFFFFFFFFFFFFFFFFFFFFFFFFFFF99
:10077000FFFFFFFFFFFFFFFFFFFFFF0C00602217DF
:1007800067800080808080800157672070A8A0A8C3
:100790007020025767304840E04048B0025565A8D5
:1007A000508850A80257678850F820F82020221758
:1007B00067808080008080801248687080609090A0
:1007C0006010E0193161A0026767788494A4948472
:1007D0007816356560A06000E00255652850A0508D
:1007E00028035363F80808153161E00267677884CD
:1007F000B4A4A48478095161F817446460909060AF
:100800000257672020F8202000F817356540A02007
:1008100040E0173565C0204020C01733632040807A
:1008200000576788888898E8808002586878E8E8E8
:10083000E868282828252262C0C010326220C0172C
:10084000356540C04040E017356540A04000E002FB
:100850005565A0502850A0025A6A40C04040503010
:1008600050781010025A6A40C040405028081020AA
:1008700038025A6AC0204020D030507810100257F9
:100880006720002020408870025A6A40200070884B
:1008900088F8888888025A6A102000708888F8884A
:1008A0008888025A6A205000708888F888888802F0
:1008B0005A6A68B000708888F88888880259695038
:1008C00000708888F8888888025A6A2050207088CA
:1008D00088F888888802576778A0A0F0A0A0B800A0
:1008E0005969708880808088701060025A6A402040
:1008F00000F88080F08080F8025A6A102000F880AA
:1009000080F08080F8025A6A205000F88080F080E1
:1009100080F80259695000F88080F08080F8123A1F
:100920006A804000E04040404040E0123A6A204087
:1009300000E04040404040E0123A6A40A000E04001
:1009400040404040E0123969A000E0404040404053
:10095000E0025767704848E8484870025A6A68B031
:10096000008888C8A8988888025A6A402000708841
:100970008888888870025A6A102000708888888861
:100980008870025A6A2050007088888888887002AF
:100990005A6A68B0007088888888887002596950DF
:1009A0000070888888888870035565885020508832
:1009B000015969087098A8A8A8C87080025A6A40AE
:1009C000200088888888888870025A6A10200088E9
:1009D000888888888870025A6A20500088888888A9
:1009E00088887002596950008888888888887002D1
:1009F0005A6A1020008888502020202012476780E3
:100A0000E0909090E080025767708890A09088B046
:100A100002586840200070087888780258681020D2
:100A2000007008788878025868205000700878882C
:100A30007802586868B00070087888780257675064
:100A400000700878887802586820502070087888EC
:100A500078025565702870A0780057677088808884
:100A60007010600258684020007088F08070025852
:100A7000681020007088F080700258682050007064
:100A800088F0807002576750007088F080701238CC
:100A900068804000C0404040E0123868204000C0FC
:100AA000404040E012386840A000C0404040E012A2
:100AB0003767A000C0404040E0025969502050080C
:100AC000788888887002586868B000B0C8888888BC
:100AD000025868402000708888887002586810208A
:100AE0000070888888700258682050007088888854
:100AF0007002586868B00070888888700257675024
:100B00000070888888700355652000F80020025521
:100B1000657898A8C8F002586840200088888888BE
:100B200070025868102000888888887002586820F1
:100B300050008888888870025767500088888888A5
:100B400070005A6A10200088888850204080005920
:100B5000698080F0888888F080800059695000881A
:100B600088885020408001080D00FE09016102CDF7
:100B700020FFFE0BFE09FE0D008032198980808067
:100B800080808080008028438390909013678748FE
:100B900048FC48FC48481259892078A0A0702828B1
:100BA000F02012698944A448101020485488126724
:100BB0008760909060948874381383808080323985
:100BC00089204040808080404020223989804040F8
:100BD0002020204040801665854830FC3048145560
:100BE000852020F82020114383706080165181F801
:100BF00021338340E040027989020204081020403A
:100C000080801269893048848484848448301259F1
:100C1000892060A02020202020F81269897884840F
:100C20000408304080FC126989FC04081038040470
:100C30008478126989081828488888FC080812698D
:100C400089FC8080B8C404048478126989384080A3
:100C500080B8C4848478126989FC040810102020AC
:100C60004040126989788484847884848478126905
:100C7000897884848C740404087021388840E040AA
:100C8000000040E040114888207020000070608023
:100C9000225989081020408040201008146484FCE8
:100CA0000000FC125989804020100810204080125A
:100CB0006989788484040810100010126989788486
:100CC000849CA4AC9480781269893048848484FC24
:100CD000848484126989F0888488F0888488F0127A
:100CE0006989788480808080808478126989F0881E
:100CF000848484848488F0126989FC808080F080F8
:100D00008080FC126989FC808080F0808080801265
:100D1000698978848080809C848C74126989848439
:100D20008484FC84848484125989F8202020202023
:100D30002020F81279893E080808080808887012EF
:100D40006989848890A0C0A0908884126989808075
:100D5000808080808080FC0279898282C6AA9292FB
:100D60008282821269898484C4A4948C84848412CB
:100D70006989788484848484848478126989F88475
:100D80008484F880808080116A8A78848484848452
:100D9000A4947804126989F8848484F8A0908884E3
:100DA000126989788480807804048478027989FEC5
:100DB000101010101010101012698984848484841B
:100DC00084848478027989828244444428282810C3
:100DD00002798982828282929292AA4402798982DD
:100DE0008244281028448282027989828244281011
:100DF00010101010126989FC04081020408080FC3B
:100E0000224989F080808080808080F0027989800A
:100E10008040201008040202124989F010101010BE
:100E2000101010F0185383205088017181FE3A226F
:100E300082804012668678047C848C741269898072
:100E40008080B8C48484C4B8126686788480808424
:100E500078126989040404748C84848C7412668604
:100E60007884FC80847812698938444040F8404096
:100E70004040106888748888708078847812698906
:100E8000808080B8C48484848412588820006020C4
:100E9000202020F8105A8A080018080808088888B6
:100EA000701269898080808890E0908884125989C6
:100EB0006020202020202020F8027686EC9292925A
:100EC0009282126686B8C48484848412668678848A
:100ED00084848478106888B8C484C4B88080801002
:100EE0006888748C848C74040404126686B8444048
:100EF0004040401266867884601884781268884082
:100F000040F8404040443812668688888888887453
:100F10001256868888885050200276868282929265
:100F2000AA441266868448303048841068888484D5
:100F3000848C74048478126686FC08102040FC229D
:100F4000598938404020C02040403832198980807B
:100F500080808080808080125989E01010201820C5
:100F60001010E018538348A890FFFFFFFFFFFFFF1A
:100F7000FFFFFFFFFFFFFFFFFFFFFFFFFFFFFFFF81
:100F8000FFFFFFFFFFFFFFFFFFFF0D00803219890A
:100F90008000808080808080801358882070A8A086
:100FA000A0A870200279891C22207020202062DCF9
:100FB0001366868478484878840279898282442836
:100FC0007C107C10103219898080808000808080A5
:100FD00080224A8A609080609090601090602A42DF
:100FE000829090037989384492AAA2AA9244381434
:100FF0005787700878887800F8037787122448901C
:10100000482412136484FC040404264181F003790B
:1010100089384492AAAAB2AA44381A6181FC2744AA
:1010200084609090601357872020F8202000F816E5
:1010300046866090106080F0164686609020109082
:10104000603A2282408011678784848484CCB48093
:101050001269897CE8E8E86828282828362181C0B8
:1010600030228240C016368640C0404040E01546DF
:10107000866090906000F00377879048241224489F
:1010800090027A8A40C0404042E60A121A06027A6A
:101090008A40C040404CF2020C101E027A8A6090D6
:1010A000201092660A121A06126989200020204038
:1010B00080848478126A8A20100030488484FC84FA
:1010C00084126A8A10200030488484FC8484126A66
:1010D0008A30480030488484FC8484126A8A649888
:1010E0000030488484FC8484126A8A48480030486E
:1010F0008484FC8484126A8A30483030488484FCBA
:1011000084840279896E9090909CF090909E106BF0
:101110008B7884808080808084781020126A8A2076
:101120001000FC8080F08080FC126A8A102000FC95
:101130008080F08080FC126A8A304800FC8080F059
:101140008080FC126A8A484800FC8080F08080FC25
:10115000125A8A402000F82020202020F8125A8AB3
:10116000102000F82020202020F8125A8A30480051
:10117000F82020202020F8125A8A888800F82020A1
:10118000202020F802798978444242E242424478A1
:10119000027A8A64980082C2A2928A8682027A8A3D
:1011A0002010007C82828282827C027A8A0810006F
:1011B0007C82828282827C027A8A1824007C8282EB
:1011C0008282827C027A8A6498007C828282828215
:1011D0007C027A8A4444007C82828282827C13660A
:1011E00086844830304884116B8B04788C9494A4A6
:1011F000A4A4C47880126A8A4020008484848484F1
:101200008478126A8A10200084848484848478120A
:101210006A8A30480084848484848478126A8A4884
:10122000480084848484848478125A8A1020008838
:1012300088502020202012698980F8848484F880D6
:10124000808012698970888890A0988484B8126917
:101250008920100078047C848C741269890810003D
:1012600078047C848C7412698930480078047C840A
:101270008C7412698964980078047C848C74126977
:101280008948480078047C848C74126A8A3048301B
:101290000078047C848C740276866C127C90926C4C
:1012A00010688878848080847810201269892010E2
:1012B000007884FC8084781269891020007884FC8E
:1012C0008084781269893048007884FC80847812A0
:1012D00069894848007884FC8084781259894020C4
:1012E000006020202020F812598920400060202032
:1012F0002020F81259896090006020202020F812E8
:1013000059899090006020202020F8126A8A483085
:101310005008788484848478126989649800B8C4F9
:101320008484848412698940200078848484847849
:101330001269891020007884848484781269893045
:101340004800788484848478126989649800788459
:1013500084848478126989484800788484848478F5
:10136000135787202000F800202011688804788C0B
:1013700094A4C4788012698940200088888888886D
:101380007412698910200088888888887412698995
:10139000304800888888888874126989505000888D
:1013A0008888888874106B8B1020008484848C74E7
:1013B000048478106A8A8080B8C48484C4B8808029
:1013C000106B8B4848008484848C74048478000CEF
:1013D00013FFFB0801B6037A20FFFE0BFE08FE0098
:1013E0000000030001020808040100C0C0C0C08062
:1013F0008000C0030303050105A0A0A0070707069E
:10140000FF0028287E28FC5050050A0A0600FF200D
:1014100070A8E0703828A87020070808080000624B
:10142000B46810102C568C07080808000070D8D833
:1014300070DECCDC76010303030105808080030AA3
:101440000A0400FE206040C0C0C0C0406020030A03
:101450000A0400FE80C0406060606040C0800303FA
:1014600003040005A040A00605050600013030FC7D
:1014700030300204040300FEC0C0408004010105B6
:101480000003F0020202030000C0C00408080400C8
:1014900000101020204040808005080806000070E1
:1014A000D8D8D8D8D8D87003080806010060E06002
:1014B000606060606005080806000070D818183089
:1014C00060C0F805080806000070D818301818D851
:1014D000700608080600000818385898FC18180507
:1014E0000808060000F8C0C0F01898D87005080871
:1014F00006000070D8C0F0D8D8D8700508080600DB
:1015000000F81818303060606005080806000070A8
:10151000D8D870D8D8D87005080806000070D8D878
:10152000D87818D870020606030000C0C00000C0BA
:10153000C00208080300FEC0C00000C0C040800414
:1015400005050500013060C0603005030306000298
:10155000F800F8040505050001C0603060C005080A
:101560000806000070D81830606000600A09120B8D
:1015700000FF1F0060804D409240A240A4809B006D
:1015800040003E0007080808000038386C6C6CFE0C
:10159000C6C6060808070000F8CCCCF8CCCCCCF8BE
:1015A0000708080800003C66C2C0C0C2663C0608C6
:1015B00008070000F0D8CCCCCCCCD8F00508080641
:1015C0000000F8C0C0F8C0C0C0F805080806000058
:1015D000F8C0C0F0C0C0C0C00708080800003C66E2
:1015E000C2C0CEC6663A060808070000CCCCCCFCC8
:1015F000CCCCCCCC020808030000C0C0C0C0C0C026
:10160000C0C0050808060000181818181818D87067
:10161000070808070000CCD8F0E0F0D8CCC60508D1
:1016200008060000C0C0C0C0C0C0C0F80908100A49
:101630000000C180E380E380F780D580DD80C98031
:10164000C980070808080000C6E6E6D6D6CECEC692
:10165000070808080000386CC6C6C6C66C380608FD
:1016600008070000F8CCCCCCF8C0C0C007090908B6
:1016700000FF386CC6C6C6D66C3C020608080700D8
:1016800000F8CCCCCCF8CCCCCC060808070000780D
:10169000CCE0781C8CCC78060808070000FC3030C1
:1016A0003030303030060808070000CCCCCCCCCC31
:1016B000CCCC78070808080000C6C66C6C6C3838BB
:1016C000100A08100B0000CCC0CCC0CCC06D806DDF
:1016D000807F8033003300070808080000C6C66C0E
:1016E00038386CC6C6080808090000C3C366663CE3
:1016F000181818060808070000FC0C18307060C0A5
:10170000FC030A0A0400FEE0C0C0C0C0C0C0C0C0E4
:10171000E0040808040000808040402020101003EE
:101720000A0A0400FEE06060606060606060E004DF
:10173000040405000460F090900601010600FEFC20
:1017400002020203000780400606060600007098A9
:1017500078D8D86C050808060000C0C0F0D8D8D8E2
:10176000D8F004060605000070D0C0C0D07005088F
:1017700008060000181878D8D8D8D87805060606C4
:10178000000070D8F8C0D87005080804FF00386061
:10179000F060606060600508080600FE68D8D8D870
:1017A000D8781870050808060000C0C0F0D8D8D84E
:1017B000D8D8020808030000C000C0C0C0C0C0C024
:1017C000030A0A03FFFE600060606060606060C042
:1017D000060808060000C0C0D8F0E0F0D8CC020827
:1017E00008030000C0C0C0C0C0C0C0C008060609D1
:1017F0000000B6DBDBDBDBDB050606060000B0D84D
:10180000D8D8D8D805060606000070D8D8D8D87021
:101810000508080600FEB0D8D8D8D8F0C0C0050822
:10182000080600FE68D8D8D8D87818180406060428
:101830000000B0E0C0C0C0C005060606000070D8B9
:101840007018D87004080804FF006060F0606060E1
:101850006030050606060000D8D8D8D8D868050636
:1018600006060000D8D8D8507020070606080000E9
:10187000D6D6D66C6C6C060606070000CC7830789D
:10188000CCCC0508080600FED8D8D8D8783030600F
:10189000050606060000F8183060C0F8040A0A05BC
:1018A00000FE30606060C06060606030010A0A0362
:1018B00001FE80808080808080808080040A0A050C
:1018C00000FEC06060603060606060C005020206BB
:1018D000000368B0FFFFFFFFFFFFFFFFFFFFFFFFF9
:1018E000FFFFFFFFFFFFFFFFFFFFFFFFFFFFFFFF08
:1018F000FFFFFFFFFF0000000300010208080401D2
:10190000FEC0004040C0C0C0C00508080600FF106F
:1019100070D8A0A0D870400508080600003868609C
:10192000F0606068D80606060600018478484878AA
:10193000840608080700008484CC48FC30FC300191
:101940000A0A0301FE80808080000080808080057C
:101950000A0A0600FE70C8E07098C87038987003D4
:101960000101030007A00808080A01003C4299A5EC
:10197000A19D423C030505050103E020A000E0060F
:1019800003030700016CD86C050303070102F80884
:1019900008040101050003F00808080A01003C42A0
:1019A000BDA5B9A5423C030101030007E003030301
:1019B00004000560A0C00607070600003030FC30B8
:1019C0003000FC03040403000460A040E0030404AE
:1019D000030004E04020C00202020300074080052B
:1019E00008080600FED8D8D8D8D8E8C0C0060A0A29
:1019F0000600FE7CE8E8E86828282828280201017B
:101A0000030003C00202020300FE40C002040403FC
:101A1000000440C04040030505050103E0A0E000CC
:101A2000E0060303070001D86CD808080809000085
:101A300044C4484812262F4207080809000044C43D
:101A40004848162A244E080808090000E44428C81B
:101A500012262F420508080600FE3000303060C014
:101A6000D870070B0B08000020100038386C6C6C25
:101A7000FEC6C6070B0B08000008100038386C6C57
:101A80006CFEC6C6070B0B08000010280038386C27
:101A90006C6CFEC6C6070B0B080000142800383813
:101AA0006C6C6CFEC6C6070A0A08000028003838AD
:101AB0006C6C6CFEC6C6070B0B08000010281038B3
:101AC000386C6C6CFEC6C60908100A00003F803CEA
:101AD000006C006F806C00FC00CC00CF80070A0A0D
:101AE0000800FE3C66C2C0C0C2663C1030050B0B4D
:101AF000060000402000F8C0C0F8C0C0C0F8050BC8
:101B00000B060000102000F8C0C0F8C0C0C0F805E7
:101B10000B0B060000205000F8C0C0F8C0C0C0F891
:101B2000050A0A0600005000F8C0C0F8C0C0C0F89E
:101B3000020B0B030000804000C0C0C0C0C0C0C08A
:101B4000C0020B0B030000408000C0C0C0C0C0C07A
:101B5000C0C0030B0B03FF0040A00060606060602A
:101B6000606060040A0A03FF0090006060606060CB
:101B700060606007080807FF00786C66F666666CB0
:101B800078070B0B080000142800C6E6E6D6D6CE70
:101B9000CEC6070B0B080000100800386CC6C6C67E
:101BA000C66C38070B0B080000081000386CC6C65E
:101BB000C6C66C38070B0B080000102800386CC62E
:101BC000C6C6C66C38070B0B080000142800386C1A
:101BD000C6C6C6C66C38070A0A0800002800386C5A
:101BE000C6C6C6C66C38060505060001CC78307836
:101BF000CC0708080800003A6CCED6D6E66CB806CA
:101C00000B0B070000201000CCCCCCCCCCCCCC787B
:101C1000060B0B070000081000CCCCCCCCCCCCCCF5
:101C200078060B0B070000205000CCCCCCCCCCCCE1
:101C3000CC78060A0A0700004800CCCCCCCCCCCC2F
:101C4000CC78080B0B090000040800C3C366663C8F
:101C5000181818060808070000C0F8CCCCCCF8C04B
:101C6000C005080806000070C8C8D0C8C8C8D0069B
:101C70000909060000201000709878D8D86C060971
:101C800009060000102000709878D8D86C06090961
:101C9000060000205000709878D8D86C0609090614
:101CA0000000285000709878D8D86C060808060004
:101CB000005000709878D8D86C06090906000020FA
:101CC0005020709878D8D86C0806060900007E9BD2
:101CD0007FD8DB6E0408080500FE70D0C0C0D0704D
:101CE000206005090906000040200070D8F8C0D81F
:101CF0007005090906000010200070D8F8C0D870DF
:101D000005090906000020500070D8F8C0D87005F9
:101D10000808060000500070D8F8C0D87002090901
:101D2000030000804000C0C0C0C0C0C00209090359
:101D30000000408000C0C0C0C0C0C003090903004B
:101D40000040A000C0C0C0C0C0C00308080300001D
:101D5000A000C0C0C0C0C0C0050909060000506096
:101D6000A070D8D8D8D87005090906000050A00086
:101D7000B0D8D8D8D8D8050909060000402000708E
:101D8000D8D8D8D87005090906000010200070D8EE
:101D9000D8D8D87005090906000020500070D8D89E
:101DA000D8D87005090906000050A00070D8D8D80E
:101DB000D870050808060000500070D8D8D8D87030
:101DC0000605050600013000FC003007060606FF88
:101DD000003A6C7C6C6CB8050909060000402000D4
:101DE000D8D8D8D8D868050909060000102000D82E
:101DF000D8D8D8D868050909060000205000D8D8DE
:101E0000D8D8D8680508080600005000D8D8D8D817
:101E1000D868050B0B0600FE102000D8D8D8D8785B
:101E2000303060050A0A0600FEC0C0F0D8C8C8D825
:101E3000F0C0C0050A0A0600FE5000D8D8D8D878ED
:101E400030306000000000250028002B000404044E
:101E50000404040404020202020202030303030353
:101E60000301020408102040800102040810200130
:101E70000204081020000000080002010000030412
:101E8000070000000000000000008C1B531B112401
:101E90001FBECFEFD8E0DEBFCDBF23E0AAEBB1E09D
:101EA00001C01D92AB33B207E1F711E0A0E0B1E051
:101EB000E2EAF1E502C005900D92AA3BB107D9F71D
:101EC0001FE0C6E4DFE004C02197FE010E94B726B0
:101ED000C534D107C9F70E94321C0C94C4280C9455
:101EE0000000CF92DF92EF92FF920F931F93CF9358
:101EF000DF936C017A018B01C0E0D0E0CE15DF05E5
:101F000089F0D8016D918D01D601ED91FC91019080
:101F1000F081E02DC6010995892B11F47E0102C0E4
:101F20002196ECCFC701DF91CF911F910F91FF90C8
:101F3000EF90DF90CF9008953FB7F89480913D02E5
:101F400090913E02A0913F02B091400226B5A89B1D
:101F500005C02F3F19F00196A11DB11D3FBFBA2F3B
:101F6000A92F982F8827820F911DA11DB11DBC019B
:101F7000CD0142E0660F771F881F991F4A95D1F760
:101F8000089508956150FC01808D681710F06FEF7F
:101F9000680F862F08956F5FFC01808D681708F029
:101FA00060E0862F0895DC011696ED91FC9117975D
:101FB00012968C91481B477081E090E001C0880F19
:101FC0004A95EAF7E60FF11D3081222311F0832BA9
:101FD00002C08095832380830895FB014181DC0149
:101FE00012962C911297421768F013962C91139722
:101FF000241740F0608115962C91621718F4248103
:102000000C94D30F0895FC0180819281980F9283E4
:102010002181921760F494819F5F94839381890F4B
:10202000821710F08FEF820F838381E0089580E0A4
:102030000895FC0112828081815083831482089567
:10204000FC01808D8F5F089580E008950B96FC0160
:10205000849108950A96FC0184910895FC0184916D
:1020600008950E942E10882321F0823011F083E021
:10207000089586E00895FC01E60FF11D849190E03B
:10208000982F88273196E4918E0F911D089568E06E
:102090000C943B1066E00C943B102EE93FE0009757
:1020A00029F0F9013197F1F70197F9CF08951092CE
:1020B0003B0210923A0208958093B6021092B90042
:1020C00084FF02C08CE001C088E48093B8000C94C7
:1020D0005710DB011496ED91FC91159720E030E04C
:1020E00065E00994DB011496ED91FC91159720E0D1
:1020F00030E062E00994DB011496ED91FC911597B4
:1021000020E030E063E00994CF92DF92EF92FF92FB
:102110000F931F93CF93DF938C017B016A0180E0C3
:10212000F601C49181110BC0CF3F09F44CC04C2F74
:10213000B701C8010E946910811143C049C0CF3F57
:1021400011F44FEFF5CFCE3F09F444C0C03FC8F5BE
:10215000C03E38F04C2F4F70B701C8010E9472107A
:1021600030C0C03D38F04C2F4F70B701C8010E94FD
:102170007B1027C0C03CF8F0D7011496ED91FC917C
:10218000159720E030E040E064E0C8010995C29571
:10219000C07FCE5FD0E0CE010E944D10D7011496D3
:1021A000ED91FC91159720E030E041E064E0C8013A
:1021B0000995CE0104C0C7FD04C08C2F90E00E9499
:1021C0004D1080E001C081E0BFEFCB1ADB0AA8CF41
:1021D00080E001C081E0DF91CF911F910F91FF90CE
:1021E000EF90DF90CF9008958F929F92AF92BF9221
:1021F000CF92DF92FF920F931F93CF93DF9300D084
:10220000CDB7DEB76C018B01F42E490120E14217F6
:1022100009F467C0241700F13AE0431729F18FE071
:10222000481369C041E0C6010E947B1040E0B8013C
:10223000C6010E94721041E8B801C6010E946910EF
:10224000F4014081B801C6010E94691040E0B80164
:10225000C6010E947B1008C1A1E14A1709F444C0DD
:10226000B5E14B1791F047C0DB011496ED91FC915D
:10227000159720E030E042E061E009954EED50E036
:10228000B801C6010E94841036C0FB01A280B38051
:1022900046ED50E00E948410D50114964C91406B9D
:1022A000B801C6010E94691041E0B801C6010E9450
:1022B0007210F50126813781D8011496ED91FC91B9
:1022C0001597D50115964C9166E0C60109958111C7
:1022D00002C080E0CAC040E0B801C6010E947B1085
:1022E0000AC04DEC50E002C042EC50E0B801C6011B
:1022F0000E948410B9C0D80112960D911C911397B9
:10230000B2E3FB1609F474C0BF15B8F0E5E1FE16A0
:1023100009F47BC0F7E1FF1609F48DC024E1F21245
:10232000A3C0D8011696ED91FC91179715968C9144
:102330009F01280F311DC90160C036E4F31609F46E
:102340008AC087E4F81609F48AC0ABE3FA128CC09D
:10235000F40181819381913029F0933031F4482F39
:10236000885004C048E0480F01C0482F21E0D80140
:1023700013963C91381708F420E031E0F8015281BF
:10238000451708F430E051E0481708F050E0822F7C
:10239000852B382319F4252309F466C0D40112963D
:1023A000FC90913051F030F0923049F0933051F47C
:1023B0002FEF09C020E031E007C021E004C020E099
:1023C0003FEF02C020E030E0F7FE08C0B401C801D2
:1023D0002A8339830E94ED0F39812A81F40180819B
:1023E000830F80838181820F8183FF0C69F73CC05A
:1023F000B401C8010E94ED0F37C01192E817F90728
:10240000E1F7C8010E9419102FC0C8010E940310F3
:10241000882309F45ECFD8011696ED91FC911797A9
:1024200015968C919F01280F311DC9011192E81753
:10243000F907E1F719C0D4011C92F80182811196C5
:102440008C9311978581815012968C93129783817A
:1024500013968C9309C0D80115968C9103C0D801AE
:1024600011968C91F401808381E00F900F90DF91A1
:10247000CF911F910F91FF90DF90CF90BF90AF90C1
:102480009F908F900895089580E090E00895EF92D6
:10249000FF920F931F93CF93DF93EC011982188261
:1024A0001B821A821D821C8261157105A9F17B01B4
:1024B000FB0101900020E9F731978F01061B170BF4
:1024C000B8016F5F7F4F80E090E00E94EA2700979D
:1024D00059F0998388831B830A832C813D81232BA8
:1024E00081F4FC0110820DC088819981009711F060
:1024F0000E945227198218821D821C821B821A8216
:102500000BC01D830C83B701DF91CF911F910F91F9
:10251000FF90EF900C94BD28DF91CF911F910F9108
:10252000FF90EF900895833081F028F4813099F086
:102530008230A1F008958730A9F08830B9F0843056
:10254000D1F4809180008F7D03C0809180008F77CF
:1025500080938000089584B58F7702C084B58F7D05
:1025600084BD08958091B0008F7703C08091B00042
:102570008F7D8093B0000895CF93DF93282F30E0B4
:10258000F901EB58F14E8491F901EF59F14ED491D4
:10259000F901E35BF14EC491CC2391F081110E94CB
:1025A0009312EC2FF0E0EE0FFF1FE25FFE4FA591BC
:1025B000B491EC91ED2381E090E021F480E002C041
:1025C00080E090E0DF91CF910895CF93DF9390E08A
:1025D000FC01EF59F14E2491FC01E35BF14E849133
:1025E000882361F190E0880F991FFC01EC5FFE4F9A
:1025F000C591D491FC01ED5BF14EA591B4916111AF
:1026000009C09FB7F8948881209582238883EC9134
:102610002E230BC0623061F49FB7F8943881822F6B
:10262000809583238883EC912E2B2C939FBF06C02B
:102630008FB7F894E8812E2B28838FBFDF91CF913D
:1026400008958F929F92AF92BF92CF92DF92EF92B6
:10265000FF926B017C010E949C0F4B015C01C11435
:10266000D104E104F104F1F00E949C0FDC01CB01E4
:1026700088199909AA09BB09883E9340A105B105AB
:1026800070F321E0C21AD108E108F10888EE880E43
:1026900083E0981EA11CB11CC114D104E104F10413
:1026A00019F7DDCFFF90EF90DF90CF90BF90AF9004
:1026B0009F908F9008951F920F920FB60F92112442
:1026C0002F933F938F939F93AF93BF93809141023A
:1026D00090914202A0914302B091440230913C0299
:1026E00023E0230F2D3720F40196A11DB11D05C055
:1026F00026E8230F0296A11DB11D20933C02809372
:10270000410290934202A0934302B093440280910D
:102710003D0290913E02A0913F02B091400201968D
:10272000A11DB11D80933D0290933E02A0933F02F4
:10273000B0934002BF91AF919F918F913F912F91A4
:102740000F900FBE0F901F901895FC0120853185CA
:1027500082859385281739072CF544855585848112
:102760009581480F591F55874487668577858681EF
:102770009781860F971F978786871816190664F426
:1027800060817181460F571F55874487428153816D
:10279000841B950B978786872F5F3F4F3187208754
:1027A00081E0089580E00895DB01ED91FC910994AA
:1027B000EF92FF920F931F93CF93DF931F92CDB7AA
:1027C000DEB78C01DC011296ED90FC901397D19648
:1027D000ED91FC91D29782E0099520E030E04AE04B
:1027E000B701C8010E94D413F82ED801D196ED91FB
:1027F000FC91D29783E00995D801D196ED91FC9197
:10280000D29780E00995FF20A1F1F80162817381E0
:102810009E012F5F3F4F46E4C8010E94D413898177
:10282000D8018C9312966D917C9113979E012F5F26
:102830003F4F47E4C8010E94D4138981F801818386
:102840006281738120E030E048E4C8010E94D41323
:10285000D8011B968C931B9798012D5C3F4F1296C5
:102860006D917C91139747E1C8010E94D41381E0D8
:1028700001C080E00F90DF91CF911F910F91FF90E9
:10288000EF90089590913B02911104C080933B0218
:1028900060933A0208951F93CF93DF9300D0CDB792
:1028A000DEB720ED37E03A8329839091BC0098236E
:1028B00099F429813A81232B51F48091B602182F83
:1028C000127081FD09C081E00E94421406C0298176
:1028D0003A8121503109E7CF11E0812F0F900F90FD
:1028E000DF91CF911F91089584E98093BC0064E04B
:1028F00080E10C944B14CF938093BB0084E88093C9
:10290000BC0063E080E80E944B14C82F882389F044
:102910008091B602C82FC27081FD0AC08091B900B3
:10292000887F883229F063E082E00E94421401C06F
:10293000C1E08C2FCF910895CF93DF93FC0123A5A5
:10294000222379F0EC010E941C1B811102C080E05F
:1029500009C08EA1811180E40E947B148823B9F301
:102960001BA681E0DF91CF9108950F931F93CF9322
:10297000C42F89016330C1F050F4613081F06230BE
:1029800009F048C0FC0146A321E023A743C06630FC
:1029900011F1673079F1653009F03CC00EC0FC01DF
:1029A00086A50E945C1036C0FC0116A221E023A778
:1029B000411130C00E9474142DC00E949C148111DA
:1029C00004C00E94741480E026C08C2F0E947B14E7
:1029D000811120C0F6CF0E949C14882391F3CC2350
:1029E000C9F0F80181918F010E947B14882349F37B
:1029F000C150F5CF0E949C14882319F3CC2351F0C9
:102A0000F80184910E947B14882329F00F5F1F4FE7
:102A1000C150F4CF81E0CF911F910F9108950F9392
:102A2000FC010150040F84A996A9941718F0081707
:102A300028F402C0081750F0041740F42150260F64
:102A400083A995A9961720F4281720F480E007C0E1
:102A5000281720F481E0261710F0F8CF81E00F91BD
:102A600008953F924F925F926F927F928F929F92C2
:102A7000AF92BF92CF92DF92EF92FF920F931F938C
:102A8000CF93DF93EC01062FDCACCBAC5C0184E090
:102A9000A80EB11CE98DFA8DC5010995182FE8849F
:102AA000F984C7010E942E10982E888599850E946E
:102AB0003110682EE1E09E1203C02FE0922E02C07A
:102AC00099249A94888599850E942A10882E888551
:102AD00099850E942610782E888599850E94471036
:102AE000013638F0009729F0E80EF91E91E6892E9C
:102AF00010C0888599850E944A10013438F00097EB
:102B000029F0E80EF91E81E4882E03C0F1E1EF0EF2
:102B1000F11C701630F41C8A1F8A188E1D8A1E8ABA
:102B20009AC07814C0F3262D30E0F70184918F3FCE
:102B300021F4FFEFEF1AFF0A43C0801238C08885E6
:102B400099850E942E1097012F5F3F4FF701882330
:102B500011F0823091F484918F8BF9012491288FA8
:102B6000F7013396E491EC8BF7013496E491ED8B09
:102B7000F7013596E491EE8B16C08491982F9F70E3
:102B800092509E8B82958F708D8BF9012491822FAC
:102B90008F70888F22952F702F8BF7013296E491DA
:102BA000E295EF70EC8BE114F10479F454C0F70175
:102BB0003296E491E921C9018E0F911DE80EF91EAC
:102BC000871409F4A8CF8394B0CF888599850E9493
:102BD0003110882E4F88988C5D885C0CD9188E89AE
:102BE000D81A1D0D092D242D412F652DC5010E94D8
:102BF0000F15882371F1E80CF11C87E0840D482E35
:102C0000469446944694312E390C4E01F0E28F0ED4
:102C1000911C642C712C1315E1F0052D67018C2D8E
:102C20008E19841590F4F60184916E817F8108A33A
:102C300019A31BA28AA394014BE3C5010E94D413DC
:102C4000FFEFCF1ADF0A085FEACFE60CF71C1F5F21
:102C5000E2CF8C8901C080E02BAD082E000C990BCF
:102C6000820F911D8BAF81E090E0DF91CF911F919A
:102C70000F91FF90EF90DF90CF90BF90AF909F901B
:102C80008F907F906F905F904F903F9008950C943D
:102C90003F240C943724CF92DF92EF92FF920F9350
:102CA0001F93CF93DF93082F10E093E1899FE001FA
:102CB0001124CB50DD4F6EA584E0689FF0011124F4
:102CC000EB50FD4FE280F380C080D180ECA5FDA5E4
:102CD00085EF92E0099594E0899FF0011124EB5073
:102CE000FD4F22813381408151818EA7CA018C1909
:102CF0009D09A9014E195F095F8F4E8F3FA32EA337
:102D0000FDA2ECA2D9A6C8A697FD08C021E030E03C
:102D10003D8F2C8F1BA61AA67C010EC02FEF3FEF14
:102D20003D8F2C8FEE24FF24E81AF90A21E030E0D1
:102D3000241B350B3BA72AA723E1209FF001219FED
:102D4000F00D1124EB50FD4F268D378DB9010E94F7
:102D50006D2671A360A3C701B9010E946D2693A3DC
:102D600082A3DF91CF911F910F91FF90EF90DF90A1
:102D7000CF900895EF92FF920F931F93CF93DF931D
:102D80008C0183E1689FF0011124EB50FD4F66A593
:102D90007F01ACE2EA0EF11CEF01AE96D701ED9196
:102DA000FC9185EF92E00995682FB4E08B9FF001CC
:102DB0001124EB50FD4F828193818017910711F40C
:102DC0006883ECCFDF91CF911F910F91FF90EF902F
:102DD0000895EF92FF920F931F93CF93DF93D82F15
:102DE000062FC42F142FF82EF40EEE24EA948F2D04
:102DF000811B1830A8F06091BD027091BE028093D3
:102E0000D7020093D8021092DA02E092D90227ED9D
:102E100032E04BE38BEB92E00E94D4131850E7CFE3
:102E20008C2F887FD80F4C2F477019F197E04927D6
:102E30006091BD027091BE02D093D7020093D80278
:102E40001092DA024F5F47708FEF90E001C0880F59
:102E50004A95EAF78093D90227ED32E04BE38BEBFA
:102E600092E0DF91CF911F910F91FF90EF900C9422
:102E7000D413DF91CF911F910F91FF90EF900895A0
:102E80000F931F93CF93DF93182F042FC62FD62FA6
:102E9000D20F402F6C2F812F0E94E916CF5FDC13D9
:102EA000F8CFDF91CF911F910F910895962FE7EB07
:102EB000F2E06681778180A391A327ED32E042E3BF
:102EC0008BEB92E00C94D413FF920F931F93CF934C
:102ED000DF93C82FD62F142F40FF0DC007E0602FBF
:102EE0006D1B86E08C0F0E945617602F6C1B86E0CE
:102EF0008D0F0E94561711FF0FC007E0602F6D1B4A
:102F000086E0F82E8F2D8C1B0E945617602F6C1BAD
:102F10008F2D8D1B0E94561713FF0CC067E06D0F9D
:102F200086E08C0F0E94561767E06C0F86E08D0FCD
:102F30000E94561712FF12C067E06D0F16E0812F36
:102F40008C1B0E94561767E06C0F812F8D1BDF9141
:102F5000CF911F910F91FF900C945617DF91CF9155
:102F60001F910F91FF900895009769F0FC01019067
:102F70000020E9F73197AF01481B590BBC0187EBE3
:102F800092E00C94710F80E090E008950F931F93EE
:102F9000CF93DF93C82FD62F142F01E0242F462F75
:102FA000682F8BEB92E00E940F15882349F0412F88
:102FB0006D2F8C2FDF91CF911F910F910C94E916FB
:102FC000DF91CF911F910F9108950F931F93CF938E
:102FD000DF93C7EBD2E00E811F81EDA9FEA982E04D
:102FE0000995EDA9FEA981E0099520E030E044E1D2
:102FF000B8018BEB92E00E94D4132EEE32E047E151
:10300000B8018BEB92E00E94D413EDA9FEA980E0F9
:10301000DF91CF911F910F9109948091C602803367
:1030200031F48FEF8093DB028093DC0208958832C5
:1030300021F0823021F081E003C08FEF01C083E0F6
:103040008093DB020895FC01448155816081718188
:1030500087EB92E00C94710F8F929F92AF92BF9288
:10306000CF92DF92EF92FF920F931F93CF93DF9354
:10307000CDB7DEB7A1970FB6F894DEBF0FBECDBFB8
:103080006C01990FEE08FF08F7FE31C0E091B7021E
:10309000F091B8020190F081E02D6DE287EB92E0B3
:1030A00009958C0122273327A9012C193D094E09C6
:1030B0005F0919A2CE0181967C019AE0892E912C9C
:1030C000A12CB12CCA01B901A50194010E9481264D
:1030D000605DF70162937F012115310541055105BE
:1030E00089F7CF010E94B417800F911F1DC0A7015F
:1030F000960119A28E010F5D1F4F8AE0C82ED12CB8
:10310000E12CF12CCA01B901A70196010E94812688
:10311000605DF80162938F0121153105410551056C
:1031200089F7CF010E94B417A1960FB6F894DEBFBD
:103130000FBECDBFDF91CF911F910F91FF90EF9008
:10314000DF90CF90BF90AF909F908F9008950C9498
:10315000B417FF920F931F93CF93DF93C82FD62FEF
:10316000142FF22E022F242F462F682F8BEB92E084
:103170000E940F15882359F02F2D412F6D2F8C2F72
:10318000DF91CF911F910F91FF900C944017DF9129
:10319000CF911F910F91FF900895CF92DF92EF9200
:1031A000FF920F931F93CF93DF9300D0CDB7DEB77D
:1031B000C82E062F481718F4182F141B02C0142FFE
:1031C000181B201758F4F02EF21A1F15C0F4802F88
:1031D000042F482F8C2DC22E282F0AC0F22EF01A51
:1031E0001F15D0F5842F422F282F8C2DC02E082F8D
:1031F000DD24D394EF2CE694021768F039C04C1507
:10320000C8F5E12EE694812F1F2DF82E842F4C2D2A
:10321000C82E022FD12C91E04F3F91F44EEF10C0F9
:10322000D11011C0602F8C2D4A8399830E945617AC
:103230004A819981E11AE7FE02C0090FEF0CC3949D
:103240004C1570F71CC06C2D802F4A8399830E9407
:10325000561799814A81EECF4C1560F4E12EE69421
:10326000812F1F2DF82E842F4C2DC82E022FD12CEC
:103270009FEFD2CF8F2DF12E182FD12CBBCF0F90D7
:103280000F90DF91CF911F910F91FF90EF90DF9002
:10329000CF9008952091BF023091C00228173907BE
:1032A00009F444C09093C0028093BF02009709F4D0
:1032B00037C02091D202FC01211107C03596E4915C
:1032C000E093D302FC013C960FC0213039F43F96C5
:1032D000E491E093D302FC01709606C03D96E49120
:1032E000E093D302FC013E9684918093D4028091B6
:1032F000D302082E000C990B2091D402821B910955
:1033000027FD93952091D502203441F0829FC00182
:10331000112426E0969587952A95E1F78093D602A9
:1033200084E290E19093D1028093D0020895FF92BD
:103330000F931F93CF93DF93F82E482F64E080E024
:103340000E946417C0E014E008EFDDEFCF5F9C2F10
:10335000990F9F5FD90F4F2D612F8C2F0E946417FB
:10336000C11730F4D7FDF2CF11500E5FD00FEECF62
:10337000DF91CF911F910F91FF9008950F931F93AD
:10338000CF93DF93FC018AE790E09093F60280935D
:10339000F502F093F802E093F7027093FA0260935B
:1033A000F9025093FC024093FB023093FE022093FB
:1033B000FD02109300030093FF0283E080930D034E
:1033C0008BEC9FE0909335038093340382EC9FE075
:1033D000909322038093210310922303A5EFB2E080
:1033E000EF0190E081E0833080F416962D913C91BE
:1033F0001797E217F3070CF4F9012C173D0714F4A3
:10340000982FE9018F5F1496EECF90932303EC1B66
:10341000FD0BF0931003E0930F03EF2B09F4A0C012
:103420009093360361E0CE010E94BA1660E0CE01AF
:103430000E94BA1681E080930E03A091230384E0DA
:10344000A89FD0011124AB50BD4FE091360384E01A
:10345000E89FF0011124EB50FD4F2D913C918081AC
:1034600091812817390719F010920E030CC0809132
:103470000F039091100301979093100380930F0313
:10348000892B09F46DC0C0910F03D091100380E027
:103490000E944B1681E00E944B1680910E038823F8
:1034A00041F081E193E00E94A51384E293E00E9441
:1034B000A51320911D0330911E038091300390913C
:1034C000310360912C0370912D0377FD30C0409142
:1034D000BC0250E06417750754F5281739079CF4AF
:1034E00097FD25C04091BB0250E024173507FCF43E
:1034F00037FF02C020E030E0841795070CF4AC01E0
:10350000421B822F12C037FD12C04091BB0250E017
:103510008417950764F497FF02C020E030E042175B
:1035200053070CF49A01422F481B0E94C61781E1F1
:1035300093E00E94A513811104C080E00E944B1605
:10354000F6CF84E293E00E94A513811104C081E0CC
:103550000E944B16F6CF21971C161D060CF4A9CF1E
:10356000DF91CF911F910F9108950F931F93CF93E8
:10357000E091C902F091CA02309719F08BEB92E00A
:1035800009950091BD021091BE02E091EC02F0910C
:10359000ED0282E00995E091EC02F091ED0281E00C
:1035A000099520E030E045E1B8018BEB92E00E9404
:1035B000D413C82F882341F02EEE32E047E1B80142
:1035C0008BEB92E00E94D413E091EC02F091ED02BB
:1035D00080E009958C2FCF911F910F9108951F9333
:1035E000CF93DF93EEE7FEE19491EAE6FEE1D4911A
:1035F000E6E5FEE1C491CC23D9F0182F992319F008
:10360000892F0E949312EC2FF0E0EE0FFF1FED5B6D
:10361000F14EA591B4918FB7F894111105C09C910A
:10362000ED2FE095E92302C0EC91ED2BEC938FBFD9
:10363000DF91CF911F910895CF9384EA8093BC00CE
:1036400061E080E80E944B14882359F08091B90012
:10365000887F883041F0803131F061E082E00E9463
:103660004214C0E01DC088E78093BB0084E88093CB
:10367000BC0062E080E80E944B14882391F38091A3
:10368000B602C82FC27081FD0AC08091B900887F40
:10369000883129F062E082E00E94421401C0C1E05A
:1036A0008C2FCF910895CF93DF93809189029091D1
:1036B0008A020E94522780918302909184020E9484
:1036C000522780917D0290917E020E945227809124
:1036D0005102909152020E94522780914B02909188
:1036E0004C020E94522780914502909146020E940E
:1036F0005227C5E7D2E02697888199810E945227F8
:1037000082E0C735D807B9F78091770290917802A7
:10371000DF91CF910C94522761E371E087E792E04B
:103720000E9447121092BA021092B90288E191E009
:103730009093B8028093B7021092F2021092F302B3
:103740001092F4021092C0021092BF021092C202B4
:103750001092C1021092C40281E08093C30282E2FF
:103760008093C5021092CA021092C902EEEDF2E0F7
:103770009FEF8EE08E0F91938E13FDCF81E08093AB
:10378000DB0224E230E13093D1022093D002809317
:10379000D2021092D3021092D40280E48093D50218
:1037A0001092D60281EC9FE09093ED028093EC02A0
:1037B00088E091E09093BE028093BD021092E902EE
:1037C0008BEB92E00E94D81384E291E09093B802D0
:1037D0008093B70266E371E087E592E00E944712AA
:1037E0006EE371E08DE592E00E94471266E471E0BD
:1037F00083E692E00E9447126EE471E089E692E06F
:103800000E9447126CE571E08FE692E00E94471239
:1038100061E671E085E492E00E94471261E671E0A2
:103820008BE492E00E94471263E671E081E592E04A
:103830000E94471282E090E0909376028093750296
:1038400065E671E08DE792E00E9447126AE671E05A
:1038500083E892E00E9447126EE671E089E892E008
:103860000C944712789484B5826084BD84B58160DD
:1038700084BD85B5826085BD85B5816085BD80913B
:103880006E00816080936E001092810080918100B3
:1038900082608093810080918100816080938100AB
:1038A000809180008160809380008091B10084606D
:1038B0008093B1008091B00081608093B0008091CE
:1038C0007A00846080937A0080917A00826080938D
:1038D0007A0080917A00816080937A0080917A00EA
:1038E000806880937A001092C10080E090E00E948E
:1038F0004916082E000C990B9093B3028093B202E4
:1039000061E089E00E94E51280918100887F8160FA
:103910008093810088E090E09093920280939102DE
:1039200084E090E09093900280938F028091F40263
:10393000811107C081E08093F4028BEB92E00E943A
:10394000D8130E94E517D0909102C0908F020FE229
:1039500028E74D2D6C2D8BEB92E00E940F158823EC
:1039600059F1D0E038E1E32E31E0F32EBD2CBD1A41
:103970008701C0E0F80184916091BD027091BE02A0
:103980009C2F9C0D9093D702B092D8021092DA022D
:103990008093D90227ED32E04BE38BEB92E00E945B
:1039A000D4130F5F1F4FC85FC83721F7FFE0EF0E3A
:1039B000F11CD150D13DD1F60E94B51A8111C3CF6F
:1039C00060ED77E080E090E00E94211381E0809339
:1039D000DB0260E085E00E94E51260E084E00E9486
:1039E000E51260E083E00E94E51260E082E00E9460
:1039F000E512C0E0D0E0CE010E9449168F3F39F4B5
:103A0000FE01E45DFE4F6081CE010E9447162196C3
:103A1000C330D10581F782E390E00E9449168F3FC1
:103A200029F46EE182E390E00E944716D6E080E53B
:103A3000882E94E2A92E90E1B92E20E2C22E20E138
:103A4000D22E0AE4902E80E480937C0080917A004C
:103A5000806480937A0080917A0086FDFCCF60912B
:103A600078008091790070E0782B072E000C880B8D
:103A7000990B0E941A239B01AC0160E070EC8FE768
:103A800094E40E94F12420E030E040E85FE30E94EB
:103A9000842420E030E44CE156E40E94792320E0C5
:103AA00030E44CE156E40E94F1240E94FE252B01F3
:103AB0003C0182E090E00E944916C82F20E030EEE1
:103AC00046E755E4C301B2010E94F1242FE03FEC28
:103AD0004BE55BE30E9485249B01AC0160E070E054
:103AE00080E89FE30E94F12423E333E948E853E4AC
:103AF0000E9484242B013C016C2FCC0F770B880B88
:103B0000990B0E941A239B01AC01C301B2010E94D0
:103B100085242B013C0120E030E0A9010E94F12521
:103B200020E030E040E05FE387FD05C0C301B20163
:103B30000E94852404C0C301B2010E9484240E9413
:103B400063258B017093B5026093B4028091990252
:103B500090919A028130910509F440C0823091051C
:103B600009F43FC0892B09F047C082E390E00E942E
:103B70004916082E000C990B801791071CF481E060
:103B800090E002C080E090E00E944916082E000CF0
:103B9000990B2FB7F89440914102509142026091E5
:103BA0004302709144022FBF00919302109194023E
:103BB0002091950230919602401B510B620B730BC2
:103BC0004033554761057105B8F02091B20230913C
:103BD000B3028217930709F013C50EC081E090E08D
:103BE00002C080E090E00E944916082E000C990B5C
:103BF0009093B3028093B2026091B2027091B302CB
:103C0000072E000C880B990B0E941A2320E030E04D
:103C100048EC52E40E94F12420E030E04FE753E406
:103C20000E9479230E946A25C62F062F10E061E0CA
:103C300089E00E94E512C11102C080E003C0CF3FBD
:103C400021F481E00E94EF1A43C0EEE7FEE1E49127
:103C5000E330F9F048F4E130B9F0E230A1F584B591
:103C6000806284BDC8BD34C0E730E9F0E83019F1A6
:103C7000E43049F580918000806280938000109349
:103C80008B0000938A0024C084B5806884BDC7BDC2
:103C90001FC080918000806880938000109389000D
:103CA0000093880015C08091B00080688093B000B8
:103CB000C093B3000DC08091B00080628093B000CB
:103CC000C093B40005C0003811050CF0BACFB5CFD1
:103CD00084E00E94BC129093B1028093B0022091C4
:103CE000AE023091AF028217930709F466C00197C4
:103CF00009F05DC08091AC029091AD02009719F07F
:103D0000019779F054C082E390E00E944916813413
:103D10000CF04DC061E0680F82E390E00E9447160E
:103D200046C08091AA029091AB022091A902181678
:103D3000190644F4211106C001979093AB028093B9
:103D4000AA0235C0222399F181309105D9F0823041
:103D5000910509F1892B59F50091A7021091A8024C
:103D600081E090E00E944916082E000C990B0597FF
:103D700008171907E4F40B5F1F4F1093A802009374
:103D8000A70215C08091A7029091A80284369105E0
:103D900074F4059608C08091A7029091A8028A3019
:103DA00091052CF401969093A8028093A70262E3F8
:103DB00070E080E090E00E9421138091B002909129
:103DC000B1029093AF028093AE0282E00E94BC12D7
:103DD0009093A6028093A5022091A3023091A402A1
:103DE0008217930709F467C0019709F05EC08091BC
:103DF000AC029091AD02009719F0019779F055C08F
:103E000082E390E00E94491618160CF04EC06FEF46
:103E1000680F82E390E00E94471647C08091AA0293
:103E20009091AB022091A9028430910544F42111B4
:103E300006C001969093AB028093AA0236C022235B
:103E4000A1F18130910571F08230910509F1892B42
:103E500061F58091A7029091A802181619062CF519
:103E600005971FC00091A7021091A80280E090E082
:103E70000E944916082E000C990B05968017910791
:103E8000A4F4055011091093A8020093A7020DC0D5
:103E90008091A7029091A802873FEFEF9E072CF038
:103EA00001979093A8028093A70262E370E080E0FC
:103EB00090E00E9421138091A5029091A602909318
:103EC000A4028093A30285E00E94BC128C0190930F
:103ED000A2028093A10280919F029091A0020817F4
:103EE000190791F10130110549F58091AC029091CB
:103EF000AD028130910591F05CF4892BF9F41093B7
:103F0000AD020093AC021092AB021092AA0216C04E
:103F10008230910579F0039769F010C08091A90271
:103F2000882319F01092A90209C01092AD021092D4
:103F3000AC0204C01093AD020093AC0262E370E0E7
:103F400080E090E00E9421131093A00200939F0252
:103F500083E00E94BC128C0190939E0280939D028C
:103F600080919B0290919C020817190709F481C067
:103F70000130110509F077C08091AC029091AD023B
:103F800081309105F1F11CF4892BE9F06CC082308D
:103F9000910521F0039709F462C065C069E180E0F2
:103FA00090E00E94471664E681E090E00E94471688
:103FB00060E082E090E00E9447166EE182E390E0CC
:103FC0000E9447164CC08091990290919A028130CC
:103FD000910559F08230910579F0892B09F043C0A1
:103FE00010939A02009399023EC082E090E0909371
:103FF0009A028093990237C010929A021092990205
:1040000032C08091AA029091AB0283309105C4F432
:104010002091A902213069F021E02093A9020E9499
:104020004916082E000C990B9093A8028093A702C2
:104030001AC01092A9026091A7020E94471613C0ED
:104040008330910519F482E090E004C0049759F49C
:1040500083E090E09093AD028093AC0204C0109393
:10406000AD020093AC0262E370E080E090E00E9459
:10407000211380919D0290919E0290939C028093C7
:104080009B028091F402811107C081E08093F402C9
:104090008BEB92E00E94D8130E94E517F0E47F2E8C
:1040A000A6E16A2EBCE53B2ECFE05C2E1EE1412E40
:1040B0000E940D1806E010E024E730E046E050E0F2
:1040C00060E870E080E090E00E94BE190BE310E031
:1040D00025E730E04BE350E06FE770E080E490E0EC
:1040E0000E94BE198091AC029091AD02009799F4A4
:1040F00022E04CE060E080E00E94A91822E04CE061
:1041000064E080E00E94A91822E04CE068E080E0D2
:104110000E94A91846C00197039708F042C00AE020
:104120002AE042E061E08BEB92E00E940F158823C9
:1041300019F081E00E9497190AE02AE042E061E06C
:104140008BEB92E00E940F15882319F088E00E9403
:10415000971920E043E063E080E00E94CD1826E05C
:1041600043E063E080E00E94CD1823E045E063E097
:1041700080E00E94CD182BE046E06BE082E00E94D8
:10418000CD188EEC93E10E944A19B092D102A09210
:10419000D0021092F2027092F30282E791E00E9444
:1041A000A7188091AC029091AD028130910509F47D
:1041B000A0C00CF06CC0892B09F016C286E69BE00B
:1041C0000E944A19D092D102C092D002C9E1C09394
:1041D000F2028CE08093F30285E791E00E94A71839
:1041E0008091B4029091B5020E942C1860EB87EB8D
:1041F00092E00E94311583E691E00E94A718C093D7
:10420000F2028BE18093F3028BE791E00E94A71802
:1042100082E390E00E944916082E000C990B0E9440
:104220002C1860EB87EB92E00E94311583E691E059
:104230000E94A718C093F2028AE28093F30281E8F9
:1042400091E00E94A7188091B2029091B3020E945F
:104250002C1881E691E00E94A7188EEC93E10E9451
:104260004A19B092D102A092D0021092F20270923A
:10427000F3022091990230919A02D29FC001D39FFC
:10428000900D112483589D4F0E942318ADC1823098
:10429000910509F48AC1039709F0A6C189ED93E05D
:1042A0000E944A19D092D102C092D002C4E1C093B8
:1042B000F2021092F3028CE591E00E94A7182CE024
:1042C0004CE66CE084E10E94CD18C093F20250925B
:1042D000F3028EE991E00E94A71887E792E00E941E
:1042E0002318C093F2028BE18093F30288EA91E0F5
:1042F00079C189ED93E00E944A19D092D102C0920F
:10430000D0026092F2021092F30287E891E00E94DC
:10431000A7186091AA027091AB02072E000C880BBF
:10432000990B0E941A2320E030E040E85EE30E94EF
:1043300079230E9499250E946325709398026093C7
:1043400097023092F2021092F302CB0101960E9482
:104350002C188CE891E00E94A7188091750290912A
:1043600076020E942C182CE04CE66CE084E10E945E
:10437000CD18CFE000E010E0809197029091980274
:10438000880F991F880F991F800F911F8530910505
:104390000CF004C12091A90221110FC02091AA02A2
:1043A0003091AB022817390741F42BE048E56C2F18
:1043B00084E10E94A9181092DB026092F202C0937D
:1043C000F3022091970230919802220F331F220F9F
:1043D000331F200F311FD29FC001D39F900D112496
:1043E000895A9D4F0E942318E0909702F0909802FE
:1043F000EE0CFF1CEE0CFF1CE00EF11EF3E0EF16BE
:10440000F1040CF0CBC022E0E216F10439F482E0B2
:1044100090E00E94491681110BC00DC081E0E816A2
:10442000F10449F481E090E00E944916843619F4C1
:104430009092F20202C08092F202C093F302E2E094
:10444000EE16F10409F582E090E00E944916181674
:1044500024F48EE891E00E94A71880919702909131
:104460009802880F991F880F991F800F911F0E9433
:104470004916082E000C990B0E942C1860EB87EB54
:1044800092E00E94311508C0C7010E944916082E0B
:10449000000C990B0E942C182091970230919802E1
:1044A000220F331F220F331F200F311FD29FC00155
:1044B000D39F900D11248B5B9D4F0E9423180E9467
:1044C0000D188091A902882309F468C08091970291
:1044D00090919802880F991F880F991F800F911F44
:1044E0002091AA023091AB022817390709F056C073
:1044F0002BE044E26C2F88E40E94A9181092DB02A2
:104500002091970230919802220F331F220F331F00
:10451000200F311F8091A7029091A802223031050F
:1045200019F4009739F409C02130310531F484368B
:10453000910519F49092F20202C08092F202C093A7
:10454000F3022230310599F41816190624F48EE886
:1045500091E00E94A7188091A7029091A8020E9462
:104560002C1860EB87EB92E00E94311502C00E948C
:104570002C182091970230919802220F331F220F9E
:10458000331F200F311FD29FC001D39F900D1124E4
:104590008B5B9D4F0E9423180E940D180F5F1F4FC9
:1045A000C45FCF3309F0E8CE1FC089ED93E00E94CD
:1045B0004A19D092D102C092D002C4E1C093F20253
:1045C0001092F3028EE491E00E94A7182CE04CE6D2
:1045D0006CE084E10E94CD18C093F2024092F30295
:1045E00080E991E00E94A7180E94B51A811160CD60
:1045F00080E090E0892B09F426CA0E94000021CABD
:104600009093B3028093B2022FB7F8948091410245
:1046100090914202A0914302B09144022FBF809337
:10462000930290939402A0939502B0939602E4CAE9
:10463000E89409C097FB3EF490958095709561953C
:104640007F4F8F4F9F4F9923A9F0F92F96E9BB27F2
:104650009395F695879577956795B795F111F8CF6E
:10466000FAF4BB0F11F460FF1BC06F5F7F4F8F4FD9
:104670009F4F16C0882311F096E911C0772321F0CF
:104680009EE8872F762F05C0662371F096E8862F67
:1046900070E060E02AF09A95660F771F881FDAF7BE
:1046A000880F9695879597F90895990F0008550FEB
:1046B000AA0BE0E8FEEF16161706E807F907C0F0A8
:1046C00012161306E407F50798F0621B730B840BB0
:1046D000950B39F40A2661F0232B242B252B21F48A
:1046E00008950A2609F4A140A6958FEF811D811D2A
:1046F00008950E948C230C94FD230E94EF2338F030
:104700000E94F62320F0952311F00C94E6230C94DC
:10471000EC2311240C9431240E940E2470F3959FF5
:10472000C1F3950F50E0551F629FF001729FBB27A8
:10473000F00DB11D639FAA27F00DB11DAA1F649F44
:104740006627B00DA11D661F829F2227B00DA11DF7
:10475000621F739FB00DA11D621F839FA00D611D7D
:10476000221F749F3327A00D611D231F849F600D9E
:10477000211D822F762F6A2F11249F5750409AF0C7
:10478000F1F088234AF0EE0FFF1FBB1F661F771F53
:10479000881F91505040A9F79E3F510580F00C941E
:1047A000E6230C9431245F3FE4F3983ED4F38695DE
:1047B00077956795B795F795E7959F5FC1F7FE2BBE
:1047C000880F911D9695879597F9089597F99F679A
:1047D00080E870E060E008959FEF80EC0895002489
:1047E0000A941616170618060906089500240A9456
:1047F00012161306140605060895092E0394000CDC
:1048000011F4882352F0BB0F40F4BF2B11F460FF6A
:1048100004C06F5F7F4F8F4F9F4F089557FD905893
:10482000440F551F59F05F3F71F04795880F97FB74
:10483000991F61F09F3F79F087950895121613062E
:104840001406551FF2CF4695F1DF08C0161617065D
:104850001806991FF1CF8695710561050894089592
:10486000E894BB2766277727CB0197F90895F99934
:10487000FECF92BD81BDF89A992780B50895262F65
:10488000F999FECF1FBA92BD81BD20BD0FB6F89435
:10489000FA9AF99A0FBE019608952F923F924F927D
:1048A0005F926F927F928F929F92AF92BF92CF92C0
:1048B000DF92EF92FF920F931F93CF93DF93CDB7C9
:1048C000DEB7CA1BDB0B0FB6F894DEBF0FBECDBF41
:1048D00009942A88398848885F846E847D848C8412
:1048E0009B84AA84B984C884DF80EE80FD800C811B
:1048F0001B81AA81B981CE0FD11D0FB6F894DEBFFE
:104900000FBECDBFED0108955058BB27AA270E94C6
:104910009C240C94FD230E94EF2338F00E94F62380
:1049200020F039F49F3F19F426F40C94EC230EF494
:10493000E095E7FB0C94E623E92F0E940E2458F340
:10494000BA17620773078407950720F079F4A6F574
:104950000C9430240EF4E0950B2EBA2FA02D0B01F1
:10496000B90190010C01CA01A0011124FF27591BB4
:1049700099F0593F50F4503E68F11A16F040A22FBA
:10498000232F342F4427585FF3CF4695379527952B
:10499000A795F0405395C9F77EF41F16BA0B620B2A
:1049A000730B840BBAF09150A1F0FF0FBB1F661F71
:1049B000771F881FC2F70EC0BA0F621F731F841FB4
:1049C00048F4879577956795B795F7959E3F08F0DA
:1049D000B0CF9395880F08F09927EE0F979587959C
:1049E00008950E9405250C94FD230E94F62358F09B
:1049F0000E94EF2340F029F45F3F29F00C94E62356
:104A000051110C9431240C94EC230E940E2468F371
:104A10009923B1F3552391F3951B550BBB27AA2777
:104A200062177307840738F09F5F5F4F220F331FB1
:104A3000441FAA1FA9F335D00E2E3AF0E0E832D079
:104A400091505040E695001CCAF72BD0FE2F29D07C
:104A5000660F771F881FBB1F261737074807AB074E
:104A6000B0E809F0BB0B802DBF01FF2793585F4FC3
:104A70003AF09E3F510578F00C94E6230C943124D3
:104A80005F3FE4F3983ED4F3869577956795B795A5
:104A9000F7959F5FC9F7880F911D9695879597F9B0
:104AA0000895E1E0660F771F881FBB1F6217730729
:104AB0008407BA0720F0621B730B840BBA0BEE1F3E
:104AC00088F7E09508950E946A256894B1110C94C6
:104AD000312408950E94162488F09F5798F0B92F2A
:104AE0009927B751B0F0E1F0660F771F881F991F23
:104AF0001AF0BA95C9F714C0B13091F00E94302471
:104B0000B1E008950C943024672F782F8827B85F80
:104B100039F0B93FCCF3869577956795B395D9F77A
:104B20003EF490958095709561957F4F8F4F9F4F84
:104B300008950E94D92590F09F3748F4911116F0FE
:104B40000C94312460E070E080E89FEB089526F437
:104B50001B16611D711D811D0C94B0250C94CB2575
:104B6000882371F4772321F09850872B762F07C084
:104B7000662311F499270DC09051862B70E060E0F8
:104B80002AF09A95660F771F881FDAF7880F969597
:104B9000879597F908959F3F31F0915020F48795BC
:104BA00077956795B795880F911D9695879597F995
:104BB00008950E941624A0F0BEE7B91788F4BB2719
:104BC0009F3860F41616B11D672F782F8827985FDD
:104BD000F7CF869577956795B11D93959639C8F36C
:104BE00008950E94552308F48FEF089516F00C9451
:104BF000CB250C94EC2368940C94E6230E94162495
:104C0000A8F39923C1F3AEF3DF93CF931F930F93D0
:104C1000FF92C92FDD2788232AF02197660F771F7F
:104C2000881FDAF720E030E040E85FEB9FE3883947
:104C300020F0803E38F021968F770E948524E8E6A8
:104C4000F0E004C00E948524E5E9F0E00E944626D9
:104C50008B01BE01EC01FB2E6F5771097595771F13
:104C6000880B990B0E941A2328E132E741E35FE3A6
:104C70000E948C23AF2D9801AE01FF900F911F91E0
:104C8000CF91DF910E949C240C94FD23DF93CF935E
:104C90001F930F93FF92EF92DF927B018C01689438
:104CA00006C0DA2EEF010E948C23FE01E894A59144
:104CB0002591359145915591A6F3EF010E949C24D1
:104CC000FE019701A801DA9469F7DF90EF90FF9059
:104CD0000F911F91CF91DF91089597FB072E16F446
:104CE000009407D077FD09D00E94A32607FC05D0C9
:104CF0003EF4909581959F4F0895709561957F4FF3
:104D00000895A1E21A2EAA1BBB1BFD010DC0AA1F0C
:104D1000BB1FEE1FFF1FA217B307E407F50720F024
:104D2000A21BB30BE40BF50B661F771F881F991F9F
:104D30001A9469F760957095809590959B01AC01E8
:104D4000BD01CF010895AA1BBB1B51E107C0AA1FDB
:104D5000BB1FA617B70710F0A61BB70B881F991F1C
:104D60005A95A9F780959095BC01CD010895EE0F55
:104D7000FF1F0590F491E02D0994CF93DF938230CB
:104D8000910510F482E090E0E0913903F0913A034C
:104D900020E030E0C0E0D0E0309711F14081518157
:104DA00048175907C0F04817590761F48281938169
:104DB000209719F09B838A832BC090933A038093AA
:104DC000390326C02115310519F04217530718F48D
:104DD0009A01BE01DF01EF010280F381E02DDCCFFB
:104DE0002115310509F1281B390B2430310590F4C8
:104DF00012968D919C9113976115710521F0FB011D
:104E00009383828304C090933A0380933903FD0116
:104E1000329644C0FD01E20FF31F8193919322501B
:104E200031092D933C933AC02091370330913803D8
:104E3000232B41F42091100130911101309338035C
:104E40002093370320910E0130910F012115310578
:104E500041F42DB73EB74091120150911301241B2C
:104E6000350BE0913703F0913803E217F307A0F414
:104E70002E1B3F0B2817390778F0AC014E5F5F4FB0
:104E80002417350748F04E0F5F1F509338034093A7
:104E900037038193919302C0E0E0F0E0CF01DF910E
:104EA000CF9108950F931F93CF93DF93009709F449
:104EB0008CC0FC0132971382128200913903109149
:104EC0003A030115110581F420813181820F931F6E
:104ED00020913703309138032817390779F5F0937B
:104EE0003803E093370371C0D80140E050E0AE17BB
:104EF000BF0750F412962D913C911397AD012115E7
:104F0000310509F1D901F3CF9D01DA013383228301
:104F100060817181860F971F8217930769F4EC01F6
:104F200028813981260F371F2E5F3F4F3183208321
:104F30008A819B8193838283452B29F4F0933A03E2
:104F4000E093390342C01396FC93EE931297ED0160
:104F5000499159919E01240F351FE217F30771F40F
:104F600080819181840F951F029611969C938E9358
:104F70008281938113969C938E931297E0E0F0E0E8
:104F8000D80112968D919C911397009719F0F80112
:104F90008C01F6CF8D919C9198012E5F3F4F820F2F
:104FA000931F20913703309138032817390769F48C
:104FB000309729F410923A031092390302C01382F9
:104FC00012821093380300933703DF91CF911F9122
:104FD0000F910895A0E0B0E0E0EFF7E20C945124C7
:104FE000EC01009721F4CB010E94BD26B8C0FC0162
:104FF000E60FF71F9C0122503109E217F30708F46E
:10500000ACC0D9010D911C91119706171707B0F08C
:105010000530110508F49FC0C8010497861797074B
:1050200008F499C002501109061B170B0193119344
:105030006D937C93CF010E9452278DC05B01A01A13
:10504000B10A4C01800E911EA0913903B0913A0330
:1050500040E050E0E12CF12C109709F44AC0A8156B
:10506000B905D1F56D907C901197630182E0C80E6F
:10507000D11CCA14DB0480F1A3014A195B096A013F
:1050800082E0C80ED11C1296BC9012971396AC9178
:10509000B5E0CB16D10440F0B282A38351834083A4
:1050A000D9016D937C930AC00E5F1F4FC301800F1F
:1050B000911FF90191838083EB2DFA2FE114F10404
:1050C00031F0D7011396FC93EE93129744C0F093FE
:1050D0003A03E09339033FC08D919C911197481793
:1050E000590708F4AC017D0112960D90BC91A02DDA
:1050F000B3CF809137039091380388159905E1F477
:1051000046175707C8F480910E0190910F01009740
:1051100041F48DB79EB74091120150911301841B49
:10512000950BE817F907C8F4F0933803E0933703B9
:10513000F901718360830FC0CB010E94BD267C0101
:10514000009759F0A801BE010E94B428CE010E9428
:105150005227C70104C0CE0102C080E090E0CDB765
:10516000DEB7EEE00C946D24FB01DC0102C001907F
:105170000D9241505040D8F70895FB01DC01019099
:105180000D920020E1F708951FE0C6E4DFE004C0BF
:10519000FE010E94B7262196C734D107C9F7F894BB
:0251A000FFCF3F
:1051A200084000000080BA01F4100001B5140000AC
:1051B2003B038000000000003115710F44124312BE
:1051C200000000003115710F4412431219640005EA
:1051D2000056312E300046616E206D696E004661C8
:1051E2006E206D617800542063616C6962004661D3
:1051F20063746F727920726573657400496E666FAD
:1052020000250043004175746F004D6178004D69BF
:105212006E006F6B005461697220005473657420D4
:105222000046616E2020004D656E75002F002B0038
:1052320041726520796F7520737572653F0046690A
:10524200726D77617265200068747470733A2F2FE3
:0A525200626F7833642E657500006A
:00000001FF
